{
  "_format": "hh-sol-artifact-1",
  "contractName": "Trial",
  "sourceName": "Contracts/Trial.sol",
  "abi": [
    {
      "inputs": [],
      "stateMutability": "nonpayable",
      "type": "constructor"
    },
    {
      "inputs": [],
      "name": "admin",
      "outputs": [
        {
          "internalType": "address",
          "name": "",
          "type": "address"
        }
      ],
      "stateMutability": "view",
      "type": "function"
    },
    {
      "inputs": [],
      "name": "recipient",
      "outputs": [
        {
          "internalType": "address",
          "name": "",
          "type": "address"
        }
      ],
      "stateMutability": "view",
      "type": "function"
    },
    {
      "inputs": [
        {
          "internalType": "address",
          "name": "_recipient",
          "type": "address"
        }
      ],
      "name": "setRecipient",
      "outputs": [],
      "stateMutability": "nonpayable",
      "type": "function"
    },
    {
      "inputs": [
        {
          "internalType": "uint256",
          "name": "amount",
          "type": "uint256"
        }
      ],
      "name": "transfer",
      "outputs": [],
      "stateMutability": "payable",
      "type": "function"
    },
    {
      "stateMutability": "payable",
      "type": "receive"
    }
  ],
  "bytecode": "0x608060405234801561001057600080fd5b50336000806101000a81548173ffffffffffffffffffffffffffffffffffffffff021916908373ffffffffffffffffffffffffffffffffffffffff16021790555061074f806100606000396000f3fe6080604052600436106100435760003560e01c806312514bba1461004f5780633bbed4a01461006b57806366d003ac14610094578063f851a440146100bf5761004a565b3661004a57005b600080fd5b610069600480360381019061006491906103e4565b6100ea565b005b34801561007757600080fd5b50610092600480360381019061008d919061046f565b61028d565b005b3480156100a057600080fd5b506100a961035f565b6040516100b691906104ab565b60405180910390f35b3480156100cb57600080fd5b506100d4610385565b6040516100e191906104ab565b60405180910390f35b60008054906101000a900473ffffffffffffffffffffffffffffffffffffffff1673ffffffffffffffffffffffffffffffffffffffff163373ffffffffffffffffffffffffffffffffffffffff1614610178576040517f08c379a000000000000000000000000000000000000000000000000000000000815260040161016f90610549565b60405180910390fd5b804710156101bb576040517f08c379a00000000000000000000000000000000000000000000000000000000081526004016101b2906105b5565b60405180910390fd5b6000600160009054906101000a900473ffffffffffffffffffffffffffffffffffffffff1673ffffffffffffffffffffffffffffffffffffffff168260405161020390610606565b60006040518083038185875af1925050503d8060008114610240576040519150601f19603f3d011682016040523d82523d6000602084013e610245565b606091505b5050905080610289576040517f08c379a000000000000000000000000000000000000000000000000000000000815260040161028090610667565b60405180910390fd5b5050565b60008054906101000a900473ffffffffffffffffffffffffffffffffffffffff1673ffffffffffffffffffffffffffffffffffffffff163373ffffffffffffffffffffffffffffffffffffffff161461031b576040517f08c379a0000000000000000000000000000000000000000000000000000000008152600401610312906106f9565b60405180910390fd5b80600160006101000a81548173ffffffffffffffffffffffffffffffffffffffff021916908373ffffffffffffffffffffffffffffffffffffffff16021790555050565b600160009054906101000a900473ffffffffffffffffffffffffffffffffffffffff1681565b60008054906101000a900473ffffffffffffffffffffffffffffffffffffffff1681565b600080fd5b6000819050919050565b6103c1816103ae565b81146103cc57600080fd5b50565b6000813590506103de816103b8565b92915050565b6000602082840312156103fa576103f96103a9565b5b6000610408848285016103cf565b91505092915050565b600073ffffffffffffffffffffffffffffffffffffffff82169050919050565b600061043c82610411565b9050919050565b61044c81610431565b811461045757600080fd5b50565b60008135905061046981610443565b92915050565b600060208284031215610485576104846103a9565b5b60006104938482850161045a565b91505092915050565b6104a581610431565b82525050565b60006020820190506104c0600083018461049c565b92915050565b600082825260208201905092915050565b7f4f6e6c79207468652061646d696e2063616e206d616b65207472616e7366657260008201527f7300000000000000000000000000000000000000000000000000000000000000602082015250565b60006105336021836104c6565b915061053e826104d7565b604082019050919050565b6000602082019050818103600083015261056281610526565b9050919050565b7f4e6f7420656e6f7567682062616c616e636520696e206163636f756e74000000600082015250565b600061059f601d836104c6565b91506105aa82610569565b602082019050919050565b600060208201905081810360008301526105ce81610592565b9050919050565b600081905092915050565b50565b60006105f06000836105d5565b91506105fb826105e0565b600082019050919050565b6000610611826105e3565b9150819050919050565b7f5472616e73666572206661696c65640000000000000000000000000000000000600082015250565b6000610651600f836104c6565b915061065c8261061b565b602082019050919050565b6000602082019050818103600083015261068081610644565b9050919050565b7f4f6e6c79207468652061646d696e2063616e207365742074686520726563697060008201527f69656e7400000000000000000000000000000000000000000000000000000000602082015250565b60006106e36024836104c6565b91506106ee82610687565b604082019050919050565b60006020820190508181036000830152610712816106d6565b905091905056fea26469706673582212204268251250b21bb0bf072c5879874ddd8af4fcc98ec50c75c1b15795eeb4d96364736f6c63430008120033",
  "linkReferences": {},
  "deployedLinkReferences": {}
}