{
  "_format": "hh-sol-artifact-1",
  "contractName": "Trial",
  "sourceName": "Contracts/Trial.sol",
  "abi": [
    {
      "inputs": [],
      "stateMutability": "nonpayable",
      "type": "constructor"
    },
    {
      "inputs": [],
      "name": "admin",
      "outputs": [
        {
          "internalType": "address",
          "name": "",
          "type": "address"
        }
      ],
      "stateMutability": "view",
      "type": "function"
    },
    {
      "inputs": [],
      "name": "recipient",
      "outputs": [
        {
          "internalType": "address",
          "name": "",
          "type": "address"
        }
      ],
      "stateMutability": "view",
      "type": "function"
    },
    {
      "inputs": [
        {
          "internalType": "address",
          "name": "_recipient",
          "type": "address"
        }
      ],
      "name": "setRecipient",
      "outputs": [],
      "stateMutability": "nonpayable",
      "type": "function"
    },
    {
      "inputs": [
        {
          "internalType": "uint256",
          "name": "amount",
          "type": "uint256"
        }
      ],
      "name": "transfer",
      "outputs": [],
      "stateMutability": "payable",
      "type": "function"
    },
    {
      "stateMutability": "payable",
      "type": "receive"
    }
  ],
  "bytecode": "0x608060405234801561001057600080fd5b50336000806101000a81548173ffffffffffffffffffffffffffffffffffffffff021916908373ffffffffffffffffffffffffffffffffffffffff160217905550610637806100606000396000f3fe6080604052600436106100435760003560e01c806312514bba1461004f5780633bbed4a01461006b57806366d003ac14610094578063f851a440146100bf5761004a565b3661004a57005b600080fd5b6100696004803603810190610064919061037e565b6100ea565b005b34801561007757600080fd5b50610092600480360381019061008d9190610409565b610227565b005b3480156100a057600080fd5b506100a96102f9565b6040516100b69190610445565b60405180910390f35b3480156100cb57600080fd5b506100d461031f565b6040516100e19190610445565b60405180910390f35b60008054906101000a900473ffffffffffffffffffffffffffffffffffffffff1673ffffffffffffffffffffffffffffffffffffffff163373ffffffffffffffffffffffffffffffffffffffff1614610178576040517f08c379a000000000000000000000000000000000000000000000000000000000815260040161016f906104e3565b60405180910390fd5b804710156101bb576040517f08c379a00000000000000000000000000000000000000000000000000000000081526004016101b29061054f565b60405180910390fd5b600160009054906101000a900473ffffffffffffffffffffffffffffffffffffffff1673ffffffffffffffffffffffffffffffffffffffff166108fc829081150290604051600060405180830381858888f19350505050158015610223573d6000803e3d6000fd5b5050565b60008054906101000a900473ffffffffffffffffffffffffffffffffffffffff1673ffffffffffffffffffffffffffffffffffffffff163373ffffffffffffffffffffffffffffffffffffffff16146102b5576040517f08c379a00000000000000000000000000000000000000000000000000000000081526004016102ac906105e1565b60405180910390fd5b80600160006101000a81548173ffffffffffffffffffffffffffffffffffffffff021916908373ffffffffffffffffffffffffffffffffffffffff16021790555050565b600160009054906101000a900473ffffffffffffffffffffffffffffffffffffffff1681565b60008054906101000a900473ffffffffffffffffffffffffffffffffffffffff1681565b600080fd5b6000819050919050565b61035b81610348565b811461036657600080fd5b50565b60008135905061037881610352565b92915050565b60006020828403121561039457610393610343565b5b60006103a284828501610369565b91505092915050565b600073ffffffffffffffffffffffffffffffffffffffff82169050919050565b60006103d6826103ab565b9050919050565b6103e6816103cb565b81146103f157600080fd5b50565b600081359050610403816103dd565b92915050565b60006020828403121561041f5761041e610343565b5b600061042d848285016103f4565b91505092915050565b61043f816103cb565b82525050565b600060208201905061045a6000830184610436565b92915050565b600082825260208201905092915050565b7f4f6e6c79207468652061646d696e2063616e206d616b65207472616e7366657260008201527f7300000000000000000000000000000000000000000000000000000000000000602082015250565b60006104cd602183610460565b91506104d882610471565b604082019050919050565b600060208201905081810360008301526104fc816104c0565b9050919050565b7f4e6f7420656e6f7567682062616c616e636520696e206163636f756e74000000600082015250565b6000610539601d83610460565b915061054482610503565b602082019050919050565b600060208201905081810360008301526105688161052c565b9050919050565b7f4f6e6c79207468652061646d696e2063616e207365742074686520726563697060008201527f69656e7400000000000000000000000000000000000000000000000000000000602082015250565b60006105cb602483610460565b91506105d68261056f565b604082019050919050565b600060208201905081810360008301526105fa816105be565b905091905056fea26469706673582212205f88fa2bfc93c1fde7458a1fbe5f1d39fbe41849fc526aec56dbcab21b6d2a0a64736f6c63430008120033",
  "linkReferences": {},
  "deployedLinkReferences": {}
}